:100000000C942A000C9447000C9447000C94470071
:100010000C9447000C9447000C9447000C94470044
:100020000C9447000C9447000C9447000C94470034
:100030000C9447000C9447000C9447000C94470024
:100040000C9447000C9447000C9447000C94470014
:100050000C94470011241FBECFE5D4E0DEBFCDBF16
:1000600010E0A0E6B0E0EAE8F2E002C005900D92F0
:10007000A036B107D9F710E0A0E6B0E001C01D92AC
:10008000A036B107E1F70E9490000C9443010C9454
:1000900000008430910569F1853091057CF4813050
:1000A0009105F1F0823091051CF4892BA9F133C040
:1000B00082309105C1F0039771F518C08730910522
:1000C00009F18830910534F485309105A9F006973F
:1000D00011F515C088309105C1F00997E1F418C0F9
:1000E00026E030E01BC02BE530E018C02FE430E004
:1000F00015C026E630E012C02DE630E00FC02DE737
:1001000030E00CC027E030E009C02FE730E006C047
:100110002FE630E003C008952FE330E0C9010895D1
:100120002F923F924F925F926F927F928F929F9207
:10013000AF92BF92CF92DF92EF92FF920F931F93F5
:10014000DF93CF9300D00F92CDB7DEB78FEF8ABB8E
:1001500087BB882499248AEF682E712C75C09FED87
:100160009BBBE981E8BBF3013197F1F7FFEEFBBBE5
:1001700028BAF3013197F1F797EF9BBB38BAF30137
:100180003197F1F7EBEFEBBB48BAF3013197F1F799
:10019000FDEFFBBB58BAF3013197F1F79EEF9BBB24
:1001A00088BBF3013197F1F72F5F3F4F23333105C0
:1001B000B1F6EA81FB813196FB83EA833A9739F005
:1001C0008A819B810E94490021E030E0C8CF0F5F07
:1001D0001F4F0630110539F0C8010E944900582E02
:1001E0001B821A82EDCF0894E11CF11CFAE0EF1695
:1001F000F10439F0C7010E944900482E00E010E0E8
:10020000EBCF0894C11CD11C86E0C816D10439F08C
:10021000C6010E944900382EEE24FF24EBCF08943B
:10022000A11CB11C93E0A916B10439F0C5010E94CC
:100230004900282ECC24DD24EBCF0894811C911C8E
:10024000E2E08E16910439F0C4010E9449008983CE
:10025000AA24BB24EBCF80E090E00F900F900F908A
:10026000CF91DF911F910F91FF90EF90DF90CF9092
:10027000BF90AF909F908F907F906F905F904F90C6
:0A0280003F902F900895F894FFCFEF
:00000001FF
