S011000074696D6577617463682E737265634D
S11300000C942A000C9434000C9434000C943400A6
S11300100C9434000C9434000C9434000C9434008C
S11300200C9434000C9434000C9434000C9434007C
S11300300C9434000C9434000C9434000C9434006C
S11300400C9434000C9434000C9434000C9434005C
S11300500C94340011241FBECFE5D4E0DEBFCDBF25
S11300600E9478000C94AF010C9400008430910538
S113007021F16CF481309105B1F11CF4892B81F1EB
S11300802EC08230910599F0039749F513C087304B
S11300909105E1F034F48530910591F00697F9F477
S11300A012C088309105A9F00997C9F415C024EA53
S11300B03FEF1BC020EB3FEF18C029E93FEF15C00D
S11300C022E93FEF12C022E83FEF0FC028EF3FEFD5
S11300D00CC020E83FEF09C028E93FEF06C00895AF
S11300E020E430E002C029EF3FEF822F932F0895E0
S11300F0CF93DF9300D000D000D0CDB7DEB78FEF21
S113010081BB84BB1A821982442443946894552485
S113011051F86894662462F86894772473F817C1D8
S113012089819A81029709F012C182E090E00E94CD
S11301303600382E812C912C7AC042BA35BAE9EFB8
S1130140F0E03197F1F700C0000052BAC4010E94F8
S1130150360085BB89EF90E00197F1F700C00000FD
S113016062BAC5010E94360085BBE3EFF1E0319726
S1130170F1F700C0000072BAC6010E94360085BBC8
S113018083EF91E00197F1F700C0000090E192BB8A
S1130190C7010E94360085BBE3EFF1E03197F1F728
S11301A000C0000022BAC8010E94360085BB83EF5C
S11301B091E00197F1F700C00000ED81FE813197D5
S11301C0FE83ED83EF2B09F0B8CF0F5F1F4F0A308A
S11301D0110529F083E090E09E838D83AECF9FEFDD
S11301E0E91AF90AE6E0EE16F10419F00B811C8114
S11301F0F1CFFFEFCF1ADF0A8AE0C816D10419F055
S1130200E12CF12CF3CF9FEFA91AB90AE6E0AE1660
S1130210B10429F0C12CD12C1B821C82F1CFFFEF39
S11302208F1A9F0A84E08816910409F490C0A12CC7
S1130230B12C6894222425F8EDCF42BA35BAE9EFFF
S1130240F0E03197F1F700C0000052BAC8010E94F3
S1130250360085BB89EF90E00197F1F700C00000FC
S113026062BAC7010E94360085BBE3EFF1E0319723
S1130270F1F700C0000072BAC6010E94360085BBC7
S113028083EF91E00197F1F700C0000090E192BB89
S1130290C5010E94360085BBE3EFF1E03197F1F729
S11302A000C0000022BA8D819E810E94360085BB69
S11302B083EF91E00197F1F700C0000091E0891A03
S11302C0910809F0BACFED81FE813196FE83ED836A
S11302D03A9731F00F2EF5E68F2E912CF02DADCFFD
S11302E0FFEFAF1ABF0A86E0A816B10429F09B817C
S11302F09D83EC81EE83EECFFFEFCF1ADF0A8AE015
S1130300C816D10419F0A12CB12CF1CF9FEFE91A32
S1130310F90AE6E0EE16F10429F0C12CD12C1B8277
S11303201C82F1CF0F5F1F4F0A30110531F0E12C11
S1130330F12C6894222425F8F0CF89819A810196C2
S11303409A83898303970CF4EBCE1A8219828981EC
S11303509A810E943600382E00E010E0E8CFF8942D
S1050360FFCFC9
S9030000FC
